{
  "contractName": "MetaCoin",
  "abi": [
    {
      "inputs": [],
      "stateMutability": "nonpayable",
      "type": "constructor"
    },
    {
      "anonymous": false,
      "inputs": [
        {
          "indexed": true,
          "internalType": "address",
          "name": "_from",
          "type": "address"
        },
        {
          "indexed": true,
          "internalType": "address",
          "name": "_to",
          "type": "address"
        },
        {
          "indexed": false,
          "internalType": "uint256",
          "name": "_value",
          "type": "uint256"
        }
      ],
      "name": "Transfer",
      "type": "event"
    },
    {
      "inputs": [
        {
          "internalType": "uint256",
          "name": "amount",
          "type": "uint256"
        },
        {
          "internalType": "uint256",
          "name": "conversionRate",
          "type": "uint256"
        }
      ],
      "name": "convert",
      "outputs": [
        {
          "internalType": "uint256",
          "name": "convertedAmount",
          "type": "uint256"
        }
      ],
      "stateMutability": "pure",
      "type": "function"
    },
    {
      "inputs": [
        {
          "internalType": "address",
          "name": "receiver",
          "type": "address"
        },
        {
          "internalType": "uint256",
          "name": "amount",
          "type": "uint256"
        }
      ],
      "name": "sendCoin",
      "outputs": [
        {
          "internalType": "bool",
          "name": "sufficient",
          "type": "bool"
        }
      ],
      "stateMutability": "nonpayable",
      "type": "function"
    },
    {
      "inputs": [
        {
          "internalType": "address",
          "name": "addr",
          "type": "address"
        }
      ],
      "name": "getBalanceInEth",
      "outputs": [
        {
          "internalType": "uint256",
          "name": "",
          "type": "uint256"
        }
      ],
      "stateMutability": "view",
      "type": "function"
    },
    {
      "inputs": [
        {
          "internalType": "address",
          "name": "addr",
          "type": "address"
        }
      ],
      "name": "getBalance",
      "outputs": [
        {
          "internalType": "uint256",
          "name": "",
          "type": "uint256"
        }
      ],
      "stateMutability": "view",
      "type": "function"
    }
  ],
  "bytecode": "0x608060405234801561001057600080fd5b506127106000803273ffffffffffffffffffffffffffffffffffffffff1673ffffffffffffffffffffffffffffffffffffffff168152602001908152602001600020819055506105e5806100656000396000f3fe608060405234801561001057600080fd5b506004361061004c5760003560e01c80637bd703e81461005157806390b98a111461008157806396e4ee3d146100b1578063f8b2cb4f146100e1575b600080fd5b61006b60048036038101906100669190610359565b610111565b604051610078919061039f565b60405180910390f35b61009b600480360381019061009691906103e6565b61012d565b6040516100a89190610441565b60405180910390f35b6100cb60048036038101906100c6919061045c565b610298565b6040516100d8919061039f565b60405180910390f35b6100fb60048036038101906100f69190610359565b6102ae565b604051610108919061039f565b60405180910390f35b600061012661011f836102ae565b6002610298565b9050919050565b6000816000803373ffffffffffffffffffffffffffffffffffffffff1673ffffffffffffffffffffffffffffffffffffffff16815260200190815260200160002054101561017e5760009050610292565b816000803373ffffffffffffffffffffffffffffffffffffffff1673ffffffffffffffffffffffffffffffffffffffff16815260200190815260200160002060008282546101cc91906104cb565b92505081905550816000808573ffffffffffffffffffffffffffffffffffffffff1673ffffffffffffffffffffffffffffffffffffffff168152602001908152602001600020600082825461022191906104ff565b925050819055508273ffffffffffffffffffffffffffffffffffffffff163373ffffffffffffffffffffffffffffffffffffffff167fddf252ad1be2c89b69c2b068fc378daa952ba7f163c4a11628f55a4df523b3ef84604051610285919061039f565b60405180910390a3600190505b92915050565b600081836102a69190610555565b905092915050565b60008060008373ffffffffffffffffffffffffffffffffffffffff1673ffffffffffffffffffffffffffffffffffffffff168152602001908152602001600020549050919050565b600080fd5b600073ffffffffffffffffffffffffffffffffffffffff82169050919050565b6000610326826102fb565b9050919050565b6103368161031b565b811461034157600080fd5b50565b6000813590506103538161032d565b92915050565b60006020828403121561036f5761036e6102f6565b5b600061037d84828501610344565b91505092915050565b6000819050919050565b61039981610386565b82525050565b60006020820190506103b46000830184610390565b92915050565b6103c381610386565b81146103ce57600080fd5b50565b6000813590506103e0816103ba565b92915050565b600080604083850312156103fd576103fc6102f6565b5b600061040b85828601610344565b925050602061041c858286016103d1565b9150509250929050565b60008115159050919050565b61043b81610426565b82525050565b60006020820190506104566000830184610432565b92915050565b60008060408385031215610473576104726102f6565b5b6000610481858286016103d1565b9250506020610492858286016103d1565b9150509250929050565b7f4e487b7100000000000000000000000000000000000000000000000000000000600052601160045260246000fd5b60006104d682610386565b91506104e183610386565b9250828210156104f4576104f361049c565b5b828203905092915050565b600061050a82610386565b915061051583610386565b9250827fffffffffffffffffffffffffffffffffffffffffffffffffffffffffffffffff0382111561054a5761054961049c565b5b828201905092915050565b600061056082610386565b915061056b83610386565b9250817fffffffffffffffffffffffffffffffffffffffffffffffffffffffffffffffff04831182151516156105a4576105a361049c565b5b82820290509291505056fea2646970667358221220554094de78ee89cf53453db1fbffb8ee622433aa15d142b3244ed6652629d78064736f6c634300080d0033",
  "immutableReferences": {},
  "source": "// SPDX-License-Identifier: MIT\n// Tells the Solidity compiler to compile only from v0.8.13 to v0.9.0\npragma solidity ^0.8.13;\n\n// This is just a simple example of a coin-like contract.\n// It is not ERC20 compatible and cannot be expected to talk to other\n// coin/token contracts.\n\ncontract MetaCoin {\n    mapping(address => uint) balances;\n\n    event Transfer(address indexed _from, address indexed _to, uint256 _value);\n\n    constructor() {\n        balances[tx.origin] = 10000;\n    }\n\n    function convert(\n        uint amount,\n        uint conversionRate\n    ) public pure returns (uint convertedAmount) {\n        return amount * conversionRate;\n    }\n\n    function sendCoin(\n        address receiver,\n        uint amount\n    ) public returns (bool sufficient) {\n        if (balances[msg.sender] < amount) return false;\n        balances[msg.sender] -= amount;\n        balances[receiver] += amount;\n        emit Transfer(msg.sender, receiver, amount);\n        return true;\n    }\n\n    function getBalanceInEth(address addr) public view returns (uint) {\n        return convert(getBalance(addr), 2);\n    }\n\n    function getBalance(address addr) public view returns (uint) {\n        return balances[addr];\n    }\n}\n",
  "sourcePath": "C:\\Users\\boina\\Desktop\\Truffle\\contracts\\MetaCoin.sol",
  "compiler": {
    "name": "solc",
    "version": "0.8.13+commit.abaa5c0e.Emscripten.clang"
  },
  "schemaVersion": "3.4.13",
  "updatedAt": "2023-07-03T06:07:01.248Z",
  "devdoc": {
    "kind": "dev",
    "methods": {},
    "version": 1
  },
  "userdoc": {
    "kind": "user",
    "methods": {},
    "version": 1
  }
}